:020000040800F2
:10000000804F002051E4000871E2000895010008CB
:1000100073E2000875E2000877E2000800000000C3
:100020000000000000000000000000009DE4000847
:1000300079E20008000000009DE400089DE400084B
:100040009DE400089DE400089DE400089DE400088C
:100050009DE400089DE40008712B0008CD2B0008EA
:10006000292C0008852C0008E12C00089DE40008DC
:100070009DE400089DE400089DE400089DE400085C
:100080009DE400089DE400089DE400089DE400084C
:10009000E5E200089DE400089DE400083D2D00080D
:1000A0009DE400089DE400089DE400089DE400082C
:1000B00085E200089DE400089DE400089DE4000836
:1000C0009DE400089DE400089DE400089DE400080C
:1000D0009DE400089DE400087BE200089DE4000820
:1000E000B12D00089DE4000889E20008000000002E
:1000F0000000000000000000000000000000000000
:1001000000000000000000005FF808F108B50EF0E4
:1001100089F872B6024B1A6801321A6008BD00BF36
:10012000A801002010B5074C23681BB90648192107
:1001300000F056FB2368013B2360236803B962B6D5
:1001400010BD00BFA801002078FA0008024B186813
:10015000003018BF01207047A8010020044A054B59
:10016000D16801F4E0610B43D360BFF34F8FFEE72A
:1001700000ED00E00400FA05024B1B68DB0700D528
:1001800000BE7047F0ED00E030BF704772B67047B8
:1001900062B670471EF0040F0CBFEFF30880EFF358
:1001A000098000F001B870472DE9F04F0368DFF8CF
:1001B000E4B2DFF8E4A2CBF800304368DFF8DC9269
:1001C000CAF800308368DFF8D882C9F80030C36805
:1001D000854FC8F800300369DFF8C8C23B60436947
:1001E000824ACCF800308369C1691360804B814D2D
:1001F0001960A96B87B0AC6A0391EE6A296B049110
:10020000E96B8DE8081002920591FFF7CCFF012100
:10021000002000F065FB002000F0A0FC00207649E3
:1002200000F0D0FF0020754900F0CCFF029A0020BA
:100230001268734900F0C6FFDDF804C00020DCF846
:100240000020704900F0BEFF009B00201A686E4934
:1002500000F0B8FF6D4B00201A686D4900F0B2FF46
:10026000DBF8002000206B4900F0ACFFDAF800203A
:100270000020694900F0A6FFD9F800200020674956
:1002800000F0A0FFD8F800200020654900F09AFF98
:100290003A680020634900F095FF0020624900F0B1
:1002A00091FF00206149039A00F08CFF0020604913
:1002B000224600F087FF00205E49324600F082FFB0
:1002C00000205D49049A00F07DFF059A00205B49FB
:1002D00000F078FF00205A4900F074FF220604D590
:1002E0006A6B0020574900F06DFFE30603D500203C
:1002F000554900F067FF270703D50020534900F058
:1003000061FFA50703D50020514900F05BFFE0071E
:1003100003D500204F4900F055FF210405D5354B8A
:1003200000209A6B4C4900F04DFFE20403D50020F9
:100330004A4900F047FF230503D50020484900F053
:1003400041FF670503D50020464900F03BFFA505A6
:1003500003D50020444900F035FFE00503D5002017
:10036000424900F02FFFA10103D50020404900F0D1
:1003700029FFE20103D500203E4900F023FF2303BB
:1003800003D500203C4900F01DFF670303D5002082
:100390003A4900F017FFA50303D50020384900F0C3
:1003A00011FFE00303D50020364900F00BFF002EBB
:1003B00003DA0020344900F005FF710003D5002066
:1003C000324900F0FFFEB20703D50020304900F0AB
:1003D000F9FE002000F09EF900F040F9042007B07B
:1003E000BDE8F04F00F078B9640C00205C0C0020F0
:1003F000680C002000ED00E0A7FA0008C6FA00082B
:10040000DAFA0008EAFA0008FAFA0008700C00208C
:100410000AFB00081AFB00082AFB00083AFB000848
:100420004AFB00085AFB00086AFB000884FB00082E
:1004300094FB0008A4FB0008B4FB0008C4FB000800
:100440007D190108D4FB0008EEFB000815FC00082C
:1004500040FC000870FC0008A1FC0008BBFC000880
:10046000E1FC00080BFD00080DFD000839FD000847
:1004700054FD000878FD00089CFD0008C4FD00083C
:10048000DBFD0008FFFD000825FE000844FE000813
:1004900069FE0008600C0020500C00206C0C00204D
:1004A000540C0020580C002030B5002837D01C4ACE
:1004B0001C4C12681C49B2FBF4F4604342F2107405
:1004C0000B88B2FBF4F20C889BB2A4B29C420D469E
:1004D00015D91C18944215D30C88A4B29C42FBD2A7
:1004E0002C88A4B29C42FBD3801AF2E70C88A4B2F9
:1004F0009C42FBD32C88A4B29C42FBD2801A1C18CD
:100500009442F3D2184480B29842074B03D21A881F
:1005100092B28242FBD81A8892B28242FBD330BD9B
:100520009001002040420F00240000401C4B00209E
:100530001A6801321A609A6801329A609A68092A28
:100540002CD998605A6801325A609A8992B2013265
:1005500092B29A819A8992B2B2F57A7F1DD198812E
:100560009A7B0132D2B29A739A7B3C2A15D1987346
:10057000DA7B0132D2B2DA73DA7B3C2A0DD1D8733E
:100580001A7C0132D2B21A741A7C182A05D1187456
:100590005A8A92B2013292B25A820120704700BF49
:1005A000AC01002010B5074C0021204614220DF0AC
:1005B000EFFE002161610448C022BDE810400DF04B
:1005C000E7BE00BFAC010020740C0020014B58684E
:1005D000704700BFAC01002030B5039C10B10A4D3C
:1005E0006D8A058011B10848007C087012B1064977
:1005F000C97B117013B1044A927B1A7014B1024B7B
:100600009B89238030BD00BFAC01002030B5172985
:10061000BDF80C500CD83B2A0AD83B2B08D8B5F5AE
:100620007A7F05D2034C60822174E273A373A581A3
:1006300030BD00BFAC010020014B1868704700BFFF
:10064000AC010020014B9861704700BFAC01002055
:10065000014B1877704700BFAC010020FFF78CBD3D
:10066000034B5A68104459688142FCD3704700BF5D
:10067000AC010020FFF718BF014B1860704700BFA6
:10068000804F0020024B1A6810431860704700BF6B
:10069000804F0020024B1A6822EA00001860704761
:1006A000804F0020014B5860704700BF804F0020F2
:1006B000014B5868704700BF804F0020014B1868FD
:1006C000704700BF804F002000487047EB100000CB
:1006D00000487047B8ED330108B502F063FEFFF73C
:1006E0003DFDFEE7024B012218781A70704700BFEB
:1006F00000000020024B002218781A70704700BFDB
:1007000000000020024B1A7818701046704700BF96
:10071000000000202DE9F04F2B4C002385B094F809
:100720000090012123702023ADF80C30054600F025
:10073000D7F88246284600F011FA244B5FFA89F96F
:100740005B69A0460BB1013B00E03F2320491C46FA
:10075000002631F81420DFF878B032B101360CB140
:10076000013C00E03F249C42F3D11A4FEEB13F2CF4
:1007700014BF013400243BF81420130AD1B2A2B1F3
:100780009A1E012A07D807EB8101D1F8A02028463C
:100790000092114902E000911049284603AA57F837
:1007A000233000F00FFD013EE0E7284600F0D6F9C7
:1007B0002846514600F094F898F8003088F80090E8
:1007C00005B0BDE8F08F00BF00000020AC010020A4
:1007D000740C0020ACE500088EFE00089AFE0008AC
:1007E000F7B51A4D07460E46FFF7D0FCAC6904B1C9
:1007F000A0470121002000F073F8002000F0AEF9BE
:10080000334613493A46002000F0DCFC002000F09B
:10081000A5F9002001F04EF9002000F09FF900201A
:10082000FFF778FF002000F099F9FFF7A5FC2B7F78
:10083000012B02D10320FFF74FFF4FF480120192EA
:10084000019B591E0191002BFAD1F8E7AC01002061
:10085000A8FE000810B5054C0246C8B204EB00140F
:10086000A3680BB1E168984710BD00BFCC01002020
:100870000A4B70B5C5B203EB05139C6864B15A68A6
:10088000DE68074B4FF4836000FB023002F000FB90
:10089000314602462846A04770BD00BFCC0100206B
:1008A000340D00200C4B020198189B5C10B533B13D
:1008B000012B0ED1BDE8104008460AF059BF42682E
:1008C000064B4FF4836000FB0230BDE8104002F09D
:1008D00080BC002010BD00BFCC010020340D0020E2
:1008E0000C4B020198189B5C10B533B1012B0ED153
:1008F000BDE8104008460AF03BBF4268064B4FF483
:10090000836000FB0230BDE8104002F068BC0020AC
:1009100010BD00BFCC010020340D002070B50B4687
:100920000646124D040119B129198B60CA6001E015
:100930002A1991602A5D291912B1012A0FD070BDC0
:1009400049680B4A4FF4836000FB01200949324695
:10095000002B08BF0021BDE8704002F02EBC3146DC
:100960000548BDE870400AF0F5BE00BFCC0100208C
:10097000340D00207108000855080008034B03EBF4
:10098000001083680B60C36813607047CC010020BF
:1009900007B5FF238DF80730164B00011A5C042AB7
:1009A00023D8DFE802F0030D221C1200184442682D
:1009B000114B4FF4836000FB023002F0AFFA16E0F7
:1009C0000DF107000AF0AAFE05E0184440680DF199
:1009D000070101F0CBFD50B99DF8070007E01A1898
:1009E000536813F8010B536001E04FF0FF3003B080
:1009F0005DF804FBCC010020340D0020194B0001F0
:100A000070B514461A5C042A28D8DFE802F0030FF8
:100A1000271C150018444268134B4FF4836000FBF9
:100A200002302246BDE8704002F0A5BA08462146D1
:100A3000BDE870400AF078BE184422464068BDE820
:100A4000704001F07FBE1D186E6808462246314690
:100A500026440DF049FC6E60204670BD4FF0FF301B
:100A600070BD00BFCC010020340D0020154B0001EB
:100A70001A5C10B5042A21D8DFE802F0030E201911
:100A8000130018444268104B4FF4836000FB02309F
:100A9000BDE8104002F0EBBA0846BDE810400AF08D
:100AA0004BBE18444068BDE8104001F077BD1844C3
:100AB000436803F8011B4360084610BD4FF0FF3048
:100AC00010BD00BFCC010020340D0020134B0001ED
:100AD0001A5C10B5042A1FD8DFE802F0030E1E19B5
:100AE0001300184442680E4B4FF4836000FB023041
:100AF000BDE8104002F08EBA0846BDE810400AF08A
:100B00001BBE18444068BDE8104001F047BD1844C2
:100B1000436803F8011B436010BD00BFCC010020F7
:100B2000340D00200B4B00011A181B5C012B0BD05D
:100B300002D3042B0AD070475268074B4FF48360EE
:100B400000FB023002F0E4B90AF014BE506801F074
:100B50004EBD00BFCC010020340D0020084B000129
:100B60001A181B5C13B1012B08D070475268054B53
:100B70004FF4836000FB023002F052BA0AF000BE6C
:100B8000CC010020340D00201B4B37B5000114466A
:100B90001A5C042A2BD8DFE802F003102A1F170082
:100BA00018444268154B4FF4836000FB0230224624
:100BB00003B0BDE8304002F095BA0846214603B0C4
:100BC000BDE830400AF0BEBD18444068224603B07C
:100BD000BDE8304001F040BD1D186B682246184644
:100BE0000DF082FB034623446B60204601E04FF08A
:100BF000FF3003B030BD00BFCC010020340D002019
:100C000008B5114B00011A5C042A04D8DFE802F091
:100C10000610031913004FF0FF3008BD03445A6853
:100C20000A4B4FF4836000FB023002F031F908BD3B
:100C30000AF06CFD08BD03445868BDE8084001F0A7
:100C4000C9BC042008BD00BFCC010020340D002029
:100C500008B5104B00011A5C042A18D8DFE802F02E
:100C6000050317150F00082008BD03445A680A4BF6
:100C70004FF4836000FB023002F029F908BD034401
:100C80005868BDE8084001F0DABC042008BD4FF008
:100C9000FF3008BDCC010020340D002010B5034BFF
:100CA00000011C181954626010BD00BFCC01002067
:100CB0002DE9F043941E222C079E05D916F002065A
:100CC0005AD10E70BDE8F0832C4D2D4C16F0200F3C
:100CD0000CBFA846A04616F0040F0CBF4FF0300919
:100CE0004FF020094D1C0027B0FBF2FC2C4600B948
:100CF00037B902FB1C0018F8000005F8010C01E0F0
:100D000005F8019C0137BCF1000F03D033B9013560
:100D10006046E9E713B9F00603D415E09F42F6DB1D
:100D2000F9E7102A06D178232C4604F8023B302339
:100D30006B7009E0082A02D16C1C302303E0022A00
:100D400002D16C1C62232B70F20701D52D2302E027
:100D5000330702D52B232370013416F0020604F169
:100D6000FF3300D12670994206D21A78087803F82A
:100D7000010901F8012BF6E7BDE8F0833A03010809
:100D8000150301088368002B04DD013B83600368C1
:100D900001330360704783689942A8BF19465B1A04
:100DA000836003681944016070470A2A07B5034647
:100DB00006D1002804DA012000905842002301E007
:100DC00000230093FFF774FF03B05DF804FB0A2AC9
:100DD00013B5044605D1002803DA032000906042D1
:100DE00001E002240094FFF763FF02B010BDF0B5EC
:100DF00003782D2B03D10130013A012605E02B2B7E
:100E000004BF013002F1FF32002600250244131A0C
:100E1000002B1CDD10F8014BA4F13003DFB2092FC9
:100E200010D9A4F16103DBB2192B02D8A4F1570346
:100E300008E0A4F14103DBB2192B94BFA4F13703FE
:100E40004FF0FF338B4205DA01FB0535DFE71EB1BA
:100E50006842F0BD0020F0BD2846F0BD03461A46AA
:100E6000117801330029FAD1101A70472DE9F04F9B
:100E7000002697B004460D46934689460427B2469D
:100E8000B04615F8011B002900F07581BAF1000F7A
:100E900000F0388162297ED017D82D294DD009D88D
:100EA000252931D02B294ED0232940F0188147F035
:100EB00010074AE03029C0F01281392930D9582969
:100EC00008BF47F0200756D009E16F295BD006D84C
:100ED00064293DD0C0F08B80692939D0FFE07329A7
:100EE00000F09B800BD8702940F0F98000970BF13F
:100EF0000409DBF8000005A91022082353E0752936
:100F000031D0782937D0EAE0FF2C07DC0CB9AC48A7
:100F1000EAE0012C40F026812520EBE02170EEE094
:100F2000302902D10EB927F0040730390A2303FB18
:100F30000616212E28BF212607E0D6F1010838BF6A
:100F40004FF0000801E047F008074FF0010A98E76A
:100F5000DBF800000BF104090028BCBF47F00107D3
:100F60004042009704E00097DBF800000BF1040911
:100F700005A90A2216E000970BF10409DBF800002E
:100F800005A910220EE000970BF10409DBF8000020
:100F900005A9082206E00097DBF800000BF1040920
:100FA00005A902223346FFF783FEFF2C14DC44B967
:100FB00005A8FFF753FF05A982B2814802F092F815
:100FC000CCE0012C40F0CA8005A8FFF747FF81B2B2
:100FD00005A80AF0B7FBC1E005A8FFF73FFF82466E
:100FE00005A9204652460DF07FF95444B6E0FF2C87
:100FF0000BF10409DBF800100CDC24B9C9B270480D
:1010000002F035F8AAE0012C40F0A880C8B20AF03E
:1010100093FBA3E02170CB4671E0DBF800A00BF15D
:10102000040350460293FFF719FFB04281461DDAD0
:10103000B8F1000F1AD1331AC3460393039B9B45A3
:1010400014DAFF2C0BDC24B920215D4802F00FF8E4
:1010500009E0012C07D120200AF06EFB03E04FF0DD
:101060002003237001340BF1010BE7E7FF2C0FDCA9
:1010700034B951461FFA89F2514802F033F80DE0B5
:10108000012C0BD150461FFA89F10AF05BFB05E0F9
:10109000204651464A460DF027F94C44B1455FDAE7
:1010A000B8F1000F5CD04FF0000BC9EB06094FF010
:1010B000200ACB4554DAFF2C0BDC24B92021404810
:1010C00001F0D5FF08E0012C06D120200AF034FB06
:1010D00002E084F800A001340BF1010BE9E7FF2CDA
:1010E0000BDC24B936483F2101F0C1FF3AE0012C66
:1010F00038D13F200AF020FB34E03F232370A9467B
:10110000013430E025297FF4BCAE09F101039D4292
:101110002CD9FF2C18DC6CB9C9EB0502013A284820
:10112000494692B201F0DEFF042726464FF0010A3D
:10113000A046A6E6012C19D1C9EB050101394846A4
:1011400089B20AF0FFFA11E0C9EB0506013E20461C
:10115000494632460DF0C8F8344407E0CB4601E07A
:10116000DDF808B0A9464FF0000A8AE65646042783
:101170004FF0010A84E609F101039D421CD9FF2CBE
:1011800013DC44B9C9EB05056A1E494692B20C4806
:1011900001F0A8FF10E0012C0ED1C9EB0505691E76
:1011A000484689B20AF0CEFA06E0C9EB05022046AD
:1011B0004946013A0DF098F817B0BDE8F08F00BF2E
:1011C000340D00200EB403B503AA52F8041B01929B
:1011D000FFF74CFE02B05DF804EB03B070472DE959
:1011E000F84F002406468A4690462546454531DAA2
:1011F00004F120092546C145B4BF4F464746BD42CC
:1012000007DA1AF8052030461349FFF7DBFF0135EE
:10121000F5E704F11F0BAB45304604DB0F49FFF740
:10122000D1FF0135F7E70E49FFF7CCFF2546BD4258
:101230000ADA1AF8052030460A491F2A98BF2E22DA
:10124000FFF7C0FF0135F2E730460749FFF7BAFF65
:101250004C46CBE7BDE8F88FFF12010806120108E3
:10126000451701085F0301087D19010803460A4676
:1012700000201946FFF7FABDFFF7F8BD0EB403B51D
:1012800003AA52F8041B0192FFF7F0FD02B05DF8CB
:1012900004EB03B07047FFF7E9BD10B50446FFF754
:1012A000DDFD0A2102462046BDE81040FFF79FBD44
:1012B00010B5034600291A4606DD147801330CB137
:1012C0000139F7E7101A10BDFCD0002010BD10B591
:1012D0000023CA5CC45C3AB134B1944203F1010307
:1012E000F7D04FF0FF3010BDA01A10BD10B500228E
:1012F0008C5C835C3CB133B1A34202F10102F7D0B4
:101300004FF0FF3010BD0BB1181B10BD184610BDBB
:1013100070B500230446D01A002806DDE55C0133D1
:10132000CE1816F8016CAE42F5D070BD10B503466C
:10133000002A02DC1A44002407E011F8014B002CBB
:10134000F8D003F8014B013AF2E7D11A002902DD87
:1013500003F8014BF9E710BD0023CA5CC254013306
:10136000002AFAD17047024610F8013B1BB18B42AC
:10137000F9D1104670471846704770B504460E46BE
:10138000254615F8011B29B13046FFF7ECFF18B9C7
:101390002C46F5E7084670BD204670BDF8B50E46F0
:1013A000044687183B1B002B08DD2546304615F800
:1013B000011BFFF7D8FF18B92C46F3E70020F8BD52
:1013C0002046F8BD38B5044608460D46FFF746FDF1
:1013D000002314F8012B1AB9834208D0002038BD2D
:1013E0008342F9DAE95C9142F2D10133F1E7DB4360
:1013F000E01838BDF8B50E46044687183B1B002B95
:1014000008DD2546304615F8011BFFF7ACFF18B183
:101410002C46F3E70020F8BD2046F8BD2DE9F84F33
:1014200004460D4699469246EAB10368104619787B
:10143000FFF799FF10B9A6680EBB9EE12046FFF7A3
:10144000A1FC236850461978FFF78DFF0028F5D1DD
:10145000A668002EEFD190E123681B78202B06D1DF
:101460002046FFF78FFCA368002BF5DCE3E7A3F130
:101470000902D2B2012AF3D90D2BF1D0DBE727689C
:1014800097F80080B8F1220F03D0B8F1270F40F091
:10149000AC8001232B70636820466B60FFF772FC01
:1014A0004FF0FF3700264FF00709A368002B40F3E9
:1014B0008A8023681B78032EFBD8DFE806F0021130
:1014C00060675C2B0AD0434503D12046FFF75AFCE6
:1014D00081E06268511C616013703CE101263AE1D1
:1014E000612B2BD010D8372B06D8302B80F02E81D3
:1014F000222B3ED0272B05E0582B00F02A815C2BB5
:1015000037D03F2B5DD134E0722B27D00AD8662B21
:101510001AD06E2B1DD0622B53D163685A1C6260A7
:10152000082224E0762B1ED0782B00F01281742B39
:1015300047D163685A1C6260092218E063685A1C2C
:10154000626083F8009018E063685A1C62600C22A5
:101550000DE063685A1C62600A2208E063685A1C46
:1015600062600D2203E063685A1C62600B221A70ED
:1015700003E06268511C616013700026EBE0303BB1
:10158000DAB2072A19D803EBC707E4E0A3F1410256
:10159000D2B2052A9CBF2033DBB2A3F13002D1B214
:1015A000092902D802EB0717D5E0613BDAB2052A18
:1015B00003D803EB07170A37CDE063685A1C626053
:1015C0001F70002671E7023EF6B2012E03D8636851
:1015D0005A1C62601F7063685A1C626000221A7095
:1015E00062686B68D31AAB6045E065493846BAF16A
:1015F000000F18BF51463246FFF7D0FE00283CD0FE
:10160000C31BB34239DCC01B0128A86037DD97F843
:1016100000A0BAF12D0CDCF1000858EB0C08BAF16F
:101620002B03D3F1000A5AEB030A5AEA080305D048
:101630002046FFF7A7FBAB68013BAB60B9F1000F99
:101640005ED1AE682768022E1DDC38464D49324611
:10165000FFF7D0FE002853D128700A2138463246C1
:10166000B8F1000F2FD0FFF7C2FB40426860711C39
:101670002046FFF790FB01267FE0B819C3E74FF043
:10168000000AD046D1E73B78302BDED17B7803F0DF
:10169000DF03B3F1580EDEF1000B5BEB0E0B422BB8
:1016A00006D1B81C3849B21EFFF7A4FE002856D058
:1016B000BBF1000FC9D0B81C3449B21EFFF79AFE27
:1016C000814618B1C1E7FFF792FBCFE72046022120
:1016D000FFF761FBAE6885F8009020681021B21E0C
:1016E000B8F1000F06D0FFF782FB404204E020680B
:1016F0000221B21EFFF77BFB6860B11E2046B8E7EF
:10170000606801232B706860B8F1000F02D1BAF154
:10171000000F08D0A3680133A3602368013B236056
:10172000AB680133AB602168AA68FFF7FFFD6A6808
:10173000AB680021D154A96820460131FFF72BFB8B
:10174000AA68636801321344636094E700270226A5
:10175000ABE6002703262046FFF714FBA5E620464C
:101760000221FFF718FB85F80090AE68B8F1000F72
:10177000BDD020680221B21EB5E73046BDE8F88F23
:101780006203010881030108670301086A03010875
:1017900040BA83B25940C1F303134B4083EA033389
:1017A0009BB2D8B283EA40107047C20707D500F158
:1017B000004080F06200400840F000407047400860
:1017C000704710B5024C2068FFF7EFFF206010BD96
:1017D000EC010020014B1860704700BFEC010020B5
:1017E0002DE9F04F0024C3B00294229202AA42AD28
:1017F00052F8243005EB840252F8808C08F1FF3255
:10180000934258DA51F8237050F823C0019796009C
:10181000875906EB000B674506DB9342A6F10405EA
:101820000CDA013A2E46F3E7934207DA8D594FEA74
:10183000830941F8235040F8097001339D0050F8A6
:10184000059000EB050AE14506DC934205F1040929
:101850000BDA01334D46F2E7934206DA4F59013A6B
:1018600093428F51CBF80090D1DB019A42AF4A519D
:101870005E1C621C02ADCAF800C045F8226007EB8E
:10188000840C07EB820545F8808C02AF4CF8803C55
:1018900055F8808C57F82490C6EB080BC9EB030A67
:1018A000D34509DD47F8229045F8803C47F824608D
:1018B0004CF8808C00E0621E541C01D0144695E761
:1018C00043B0BDE8F08F2DE9F04105460F461646BE
:1018D00098460024B44206DA57F82400C04745F879
:1018E00024000134F6E7284639463246BDE8F04187
:1018F000FFF776BF00221346FFF790BD0023FFF7E6
:101900008DBD00220123FFF789BD0123FFF786BDAE
:1019100010B50446016041600AB1826010BD0846FE
:10192000FFF79CFAA06010BD2DE9F0478CB00029AC
:1019300045D08C78254F264D14F0800F0CBFAA4659
:10194000BA46244F244D14F0010F0CBFA946B946E6
:10195000224F234D14F0400F0CBFA846B846214F2C
:10196000214D14F0080F0CBFAC46BC461F4F204D54
:1019700014F0020F18BF3D4614F0040F1D4F1E4C0B
:101980000B780CBFBE46A646CC68CF788DE8100415
:10199000CDF80890CDF80C80CDF810C00595CDF8A5
:1019A00018E04C6807948C680992089449690B9771
:1019B0000A911249FFF706FC0CB0BDE8F087104908
:1019C0000CB0BDE8F047FFF7FDBB00BF8C0301087A
:1019D0008F03010892030108950301089803010889
:1019E0009B0301089E030108A1030108A403010849
:1019F000A7030108AD030108AA030108B003010809
:101A00000E040108174B2DE9F041DD6804468160A2
:101A1000984615B1002633460FE00562D860BDE850
:101A2000F08101367F2E2F6A04DD0F4840F26621D7
:101A3000FEF7D6FE8FB12B463D46A168AA689142BB
:101A4000EFD233B9D8F80C30C8F80C402362BDE8A7
:101A5000F0811C622562BDE8F0812C622762BDE83E
:101A6000F08100BFF0010020170401080E4B2DE9A2
:101A7000F041D3F814230546A2B100244FF0180812
:101A800003F1140708FB047622462846074933462B
:101A9000FFF798FB013428463146054AFFF744FF1B
:101AA000202CEFD1BDE8F081F00100203B040108BB
:101AB000AF2F01082DE9F04F514E8FB00446514928
:101AC000FFF780FB504A2046B168FFF72DFF4F4BD0
:101AD0000AAD03F11002A846186859682F4603C7DB
:101AE000083393423D46F7D140465F21FFF73BFC68
:101AF0003568074601226DB13846454902F10109B2
:101B0000FFF7BCFB294642462046FFF70DFF6D69F3
:101B10004A46F0E73F4A20467168FFF705FF204636
:101B20003D49FFF74FFB20463C49D6F81423FFF709
:101B300049FB20463A49FFF745FB3A4F4FF0010871
:101B40004FF0180908FA05F2D6F814331A4205D1F5
:101B5000204609FB0571344AFFF7E6FE0135202DCA
:101B6000F0D120462E49FFF72DFB20462F49FFF7E5
:101B700029FB2F4B06AD03F10802A84618685968E7
:101B80002F4603C7083393423D46F7D19A88186819
:101B90009B79BA803860BB715F214046FFF7E3FB59
:101BA000F5680746FEF712FDDFF88C90DFF88CA091
:101BB000064601220DB33846154902F1010BFFF725
:101BC0005DFBAA682B7E0092921B0192EA68204678
:101BD00002922A6A17490392EA69002B0CBF4B460E
:101BE000534604924246FFF7EDFA696842462046A2
:101BF000FFF79AFE2D6A5A46DCE70FB0BDE8F08F7A
:101C0000F00100205704010870040108E5040108F0
:101C10007A0401087F040108890401089804010876
:101C20007D19010804020020461701089F040108DD
:101C3000F5040108A9040108510401084B04010836
:101C400038B5144B1B685B0705D5134B1B6813B9DC
:101C5000124807F0A3FA124C0021204614220CF07F
:101C600097FB04F1140000214FF441720CF090FB3B
:101C700000210B4618200124094A00FB03252B757F
:101C800004FA03F50133202B41EA0501F4D1C2F82F
:101C9000141338BD804F0020844F00200405010834
:101CA000F0010020F8B50E460746FEF72FFA06F0C1
:101CB000040202F0FF03244D62B9D5F81423002A70
:101CC00034D0012101FA03F4144010D10133202B48
:101CD000F8D12CE0D5F8142342B31F23012101FAD7
:101CE00003F4144003D113F1FF33F8D21FE00121B4
:101CF0009940D5F8142322EA0102C5F814231822CA
:101D00005343124A12491278CC1882B1114AC95C65
:101D10001068114B41F4D85123F8101013683E2B72
:101D200096BF136800230133136000E01446FEF7EA
:101D3000F9F93CB10023E370237806F03606E7603A
:101D4000A67063702046F8BDF0010020000000205E
:101D500004020020C0010020740C0020F8B50F46DA
:101D60001646044618B92E48D721FEF739FD2378C8
:101D7000012103F01F0201FA02F22A4D5B0905EB73
:101D80008303D3F814331A4203D02548D821FEF731
:101D900027FDA378D90703D52148D921FEF720FDD7
:101DA000A3785A0603D51E48DA21FEF719FD1E4B0B
:101DB0009C4203D21A48DB21FEF712FD1B4B9C42CA
:101DC00003D91748DC21FEF70BFDA378676043F0C9
:101DD0000103A370A660FEF799F96B6813B9114B64
:101DE0001C6000E05C616C60E37800220133DBB2D0
:101DF000E3700F4B62611B786BB10E4B647818680F
:101E00000D4944F4E05421F8104019683E299CBF64
:101E10001A6801321A60BDE8F840FEF783B900BFC6
:101E200017040108F001002004020020040500202E
:101E300000000020C0010020740C002010B5847840
:101E400044F002048470BDE81040FFF787BF2DE91D
:101E5000F84F1A4D0C469A46814693460A9EDDF885
:101E60002C800C9FFEF752F901232B74237E23B1A3
:101E7000134840F20711FEF7B3FC95F81833C4F885
:101E800010B0DBB223705A1C01232376D2B2C4F8FF
:101E900014A0C4F80490A660C4F80C80E76185F82B
:101EA0001823FEF793FB81192046FFF7ABFD0023B3
:101EB0002B74BDE8F84FFEF735B900BFF0010020E4
:101EC00017040108C160704738B50446FEF71EF9D3
:101ED000237E9BB10B4901230B74CB680022227631
:101EE00018464BB11D7E25B9256A0AB9284600E07F
:101EF00015621A461B6AF4E7C8600B74BDE83840E7
:101F0000FEF710B9F0010020044B9B689A7822F08C
:101F1000030242F008029A70704700BFF0010020EF
:101F2000014B9B6818787047F0010020807800F022
:101F30000100704710B5034C236813B9FEF724F96C
:101F4000FAE710BDF001002070B50446FEF7DEF898
:101F5000A378DD070DD4217821484A09C03200EB6F
:101F6000820201F01F01012000FA01F150690843CB
:101F70005061580629D5236923B91A4840F26311E4
:101F8000FEF72EFC2569AB68A34201D000260BE0CA
:101F90006369AB60EB68A34217D10023EB6014E0E8
:101FA000A34204D01E465B69002BF9D10DE026B98F
:101FB0000C4840F26F11FEF713FC63697361EB6824
:101FC000A34202D10023EE607361A37823F047039C
:101FD00043F00803A370BDE87040FEF7A3B800BF4C
:101FE000F001002017040108044B1A6822B9986810
:101FF000003018BF0120704701207047F001002019
:102000002DE9F843674DFEF781F82C68AC6024B9E0
:10201000FEF788F82046BDE8F88305F1140844452A
:1020200004D2614840F29311FEF7DAFB5F4FBC42E5
:1020300004D95D484FF4CA71FEF7D2FB94F80290C0
:10204000A37809F00909B9F10106D6F1000903F0F6
:102050000A0359EB0609022B19D16669002E35D007
:102060006B685C6163692B6073B1434504D24E4871
:1020700040F2A111FEF7B4FB2B68BB4204D94A48D9
:102080004FF4D171FEF7ACFB6C6000261EE0636973
:1020900062692B6012B9434B5A600EE0434504D28B
:1020A00041484FF4D671FEF79BFB2B68BB4204D925
:1020B0003D4840F2AD11FEF793FBA678A37886F079
:1020C000040603F0FE03C6F38006A370FEF72AF8A9
:1020D000B9F1000F63D0A378354F43F08003A370AC
:1020E0003B7873B1334B344A1968607840F4E85058
:1020F00022F811001A683E2A96BF1A68002201329F
:102100001A60E3686068A1689847FDF7FFFFE3780D
:102110001BB1E378013BDBB2E37094F803805FFA14
:1021200088F8FDF7FFFFB8F1000FEAD1FDF7EEFFE9
:102130003B7873B11F4B204A1968607840F4F05027
:1021400022F811001A683E2A96BF1A6842460132E8
:102150001A60A37803F07F03A370F6B12378227886
:102160005B09C03305EB830502F01F02012303FA6C
:1021700002F26B6913436B613B7873B10D4B0E4AEE
:102180001968207840F4F85022F811001A683E2AA5
:1021900096BF1A68002201321A60FDF7C3FF0120C2
:1021A000BDE8F883F00100201704010804050020B1
:1021B00000000020C0010020740C0020F8B5017858
:1021C0004D4E0546B46801F0FF024C4BA9B9012100
:1021D00001701B78817044606BB1494B647818685A
:1021E000484944F4045421F8104019683E299CBF22
:1021F0001A6801321A600120F8BD4278FAB14168CC
:10220000A1421CD182781B780132D2B2827073B1A4
:102210003B4B4C7818683B4944F4145421F8104067
:1022200019683E2996BF1968002101311960FD2AFD
:10223000E1D935484FF4FD71FEF7D2FADBE71B78A0
:1022400073B12F4B607819682E4A40F4085022F879
:1022500011001A683E2A96BF1A68002201321A60DD
:10226000FDF754FFA378256113F0060F0DD12178F7
:1022700001204A0901F01F0100FA01F1C03206EB0A
:102280008202506920EA010050619F0723D57368DC
:10229000A34204D01C4840F20721FEF7A1FA33689C
:1022A00023B919484FF40271FEF79AFA3368124ABB
:1022B000A3420AD10023136053600CE027B91248EF
:1022C00040F21221FEF78CFA3B465F69A742F5D136
:1022D00000225A617360FDF725FFEB680BB9AC6013
:1022E00000E05C61EC60A378002023F0010343F080
:1022F0004003A3706061F8BDF001002000000020E1
:10230000C0010020740C002017040108037810B5E8
:1023100003F0FF02C3B901231F498370896803706A
:102320001E4B41601B786BB11D4B4C7818681D49E2
:1023300044F4045421F8104019683E299CBF1A68DF
:1023400001321A60012010BD437813B3124B41686B
:102350009B6899421DD18278104B01321B78D2B212
:10236000827073B10E4B4C7818680E4944F41454C3
:1023700021F8104019683E2996BF196800210131E3
:102380001960FD2ADED908484FF40D71FEF728FACE
:10239000D8E7002010BD00BFF001002000000020A1
:1023A000C0010020740C0020170401082DE9F84337
:1023B0008378044623B9354840F23B21FEF710FAF2
:1023C000637813B9A378012B04D9304840F23D213A
:1023D000FEF706FAA3782E4E012B17D9013BA37006
:1023E0003378002B4FD02B4A2B4B926819685078CA
:1023F0002A4A40F4185022F811001A683E2A96BF63
:102400001A68002201321A60BDE8F883337883B17C
:10241000204A214B926819685078204A40F41050A5
:1024200022F811001A683E2A96BF1A68002201326B
:102430001A60194D0023A068184F23706360A846E6
:10244000F8B18378317823F0400282700022D0F80E
:102450001490026169B190F801C029684CF40C5CD9
:1024600027F811C029683E299CBF2A680132C8F8A4
:1024700000201B0703D441688268FFF76FFC4846C1
:10248000DEE7A060E060BDE8F88300BF1704010844
:1024900000000020F0010020C0010020740C00208A
:1024A000074BDB6813B941B10B6006E008B19A68CD
:1024B000026001B10B60002070474FF0FF307047A1
:1024C000F00100202DE9F843214FFC68002C3DD09D
:1024D0003B7C002B3AD11F4DDFF88080A946A668CF
:1024E000FEF774F8864231D8FDF710FE60688378F5
:1024F00013F0410316D1227EA2B198F800206AB1F0
:1025000026782968144A46F4005622F811602A6891
:102510003E2A9CBF2B680133C9F8003021696269EB
:10252000FFF71CFC266AE368FE6043B1227E32B1ED
:10253000A16820461944A160FFF764FA01E0002376
:102540002376FDF7EFFD0EB13446C8E7BDE8F8830A
:10255000F0010020C0010020740C002000000020C9
:102560000023838002810160C38070478388C28812
:102570009BB292B293420DD011B10268D25C0A7044
:102580000289013A9342BABF01339BB20023838090
:1025900000207047004870470CFEFFFF8288C38808
:1025A00092B210B59BB21AB90489013CA3420ED075
:1025B000013A93420BD00268D1540289013A934206
:1025C000BABF01339BB20023C380002010BD6FF45B
:1025D000FA7010BD8288C38892B29BB29342C2EB5C
:1025E000030301D318467047008918447047034617
:1025F0008288C08892B280B290423CBF198940184C
:10260000801A00229A8080B2DA807047838802465E
:10261000C0889BB280B2834210B50ED098423CBFB6
:10262000148900191468C01A80B21C4412890C6005
:102630001918914202DBD01A10BD002010BD82880B
:10264000C38892B200899BB29342C2EB030338BFA6
:102650001B18C01A0138704783882DE9F041C488DF
:102660009BB206460D46A4B21BB9018901398C42C2
:102670005CD0591E8C4259D0B6F808809C4236BFB7
:1026800008EB0401C3EB0403C3EB01039BB208F1A5
:10269000FF37FF1ABFB2974228BF1746E3194345D9
:1026A0001FDB244BC4EB08089D421FFA88F803D3B4
:1026B000214A13449D4209D3B5F1006F02D31F4B49
:1026C0009D4203D31E487621FEF78AF830682946DA
:1026D0002044424645440BF007FEC8EB070800249F
:1026E00000E0B846B8F1000F18DD124B9D4203D34D
:1026F000114A13449D4209D3B5F1006F02D30F4B29
:102700009D4203D30E487D21FEF76AF830682946C2
:10271000204442460BF0E8FD4444A4B233893846D5
:10272000A34298BF0024F480BDE8F0816FF4FA70F2
:10273000BDE8F0810000002000500000008001088A
:102740000F0501082DE9F0418488C388A4B29BB22B
:102750009C4206460D464AD0A34238BF0789B0F8CE
:10276000088038BFDB191B1B9BB2934234BF1F4646
:102770001746E31943451ADBC4EB08081FFA88F82B
:1027800089B11C4B994203D31B4A1344994203D38A
:102790001A489921FEF724F8316828462144424618
:1027A0000BF0A2FD4544C8EB0708002400E0B84642
:1027B000B8F1000F13DD85B10E4B9D4203D30E4AD5
:1027C00013449D4203D30D48A221FEF709F8316856
:1027D0002846214442460BF087FD4444A4B2338985
:1027E0003846A34298BF0024B480BDE8F081044875
:1027F000BDE8F08100000020005000000F05010836
:102800000CFEFFFF70B50A4D044655F820300E4609
:102810002BB9084B012153F820000AF0A1FB01233A
:1028200003FA06F655F82430334345F8243070BDDA
:102830000C0500200CE7000838B50A4B044603EBF2
:102840008003DD6928460AF01BF948B128460AF0E2
:1028500025F9054B03EB8403DB690BB12046984750
:1028600038BD00BF0CE700080C05002073B51D4EF5
:102870009DF8184006EB4101B1F85C109DF81C5022
:10288000ADF80410032B1FD8DFE803F0020D141B72
:10289000012D06D003D3022D16D1282312E00423E4
:1028A00010E048230EE01CB1012C0DD1142309E0E7
:1028B000102307E01CB1012C06D11C2302E01823D1
:1028C00000E000238DF80730324492F87C3006EBAC
:1028D0008006D6F8800001A98DF806300AF045F987
:1028E00002B070BD0CE70008024B03EB8000D0F88B
:1028F000800070470CE70008024B03EB4000B0F883
:102900005C0070470CE700082DE9F0479DF8249023
:102910009DF8288005460C4617461E46FFF772FFB5
:10292000CDF82090CDF82480284621463A463346FB
:10293000BDE8F047FFF79ABFF7B51F4605460C46BE
:102940001646FFF75FFF9DF8203000970193284659
:10295000214632460123FFF789FF03B0F0BD73B56E
:1029600005460C461646FFF74DFF002300930193E2
:10297000284621463246FFF779FF02B070BD37B5D1
:1029800005460C46FFF73EFF0023009301932846BF
:1029900021460122FFF76AFF03B030BD012303FA8D
:1029A00001F1074B53F8202022EA010143F82010DF
:1029B00021B9044B53F820000AF0D2BA704700BF87
:1029C0000C0500200CE70008054B03EB800003EB2F
:1029D0004101D0F88020B1F85C301361704700BF2E
:1029E0000CE70008054B03EB410103EB8000B1F855
:1029F0005C30D0F880201B04136170470CE700089E
:102A0000084B03EB420203EB410103EB8000B2F8F9
:102A10005C20B1F85C30D0F8800043EA02420261E9
:102A2000704700BF0CE70008074B03EB8000D0F8AD
:102A3000802003EB41019268B1F85C3013420CBF77
:102A400000200120704700BF0CE70008F7B51F46C3
:102A5000134B0D46063103EB81014E68E6B9114C6C
:102A60004A606319204493F8A31090F89C0004EB8B
:102A700085053C440AF03EF994F8B330EA698DF8D4
:102A800005306846012300928DF804608DF8063009
:102A900009F0A0FF304601E04FF0FF3003B0F0BD79
:102AA0000C0500200CE70008124B37B58A1D03EB1C
:102AB000820200235360104A0124501890F8B60097
:102AC00002EB810145B200F01F0004FA00F0CA6970
:102AD0000A4C6D09203544F825000092684608220A
:102AE0008DF804308DF805208DF8063009F072FF5E
:102AF00003B030BD0C0500200CE7000800E100E049
:102B0000074B0122194491F8B63059B203F01F0364
:102B100002FA03F34909034A203142F82130704791
:102B20000CE7000800E100E038B50C460A4D22B180
:102B300005EB8103D86909F0B1FF2C4494F8B63055
:102B4000012259B203F01F0302FA03F3034A4909B1
:102B500042F8213038BD00BF0CE7000800E100E07A
:102B6000024800215C220BF013BC00BF0C050020C2
:102B7000134B10B51A781C466AB1124B124A1968E9
:102B800040F20B2022F811001A683E2A96BF1A68FC
:102B9000002201321A600020FFF74EFE23786BB14D
:102BA000084B094A196840F20B3022F811001A68E4
:102BB0003E2A96BF1A68002201321A6010BD00BF7B
:102BC00000000020C0010020740C0020134B10B541
:102BD0001A781C466AB1124B124A19684FF40370F6
:102BE00022F811001A683E2A96BF1A6800220132A4
:102BF0001A600120FFF720FE23786BB1084B094AC9
:102C000019684FF4437022F811001A683E2A96BFE3
:102C10001A68002201321A6010BD00BF00000020B7
:102C2000C0010020740C0020134B10B51A781C460C
:102C30006AB1124B124A196840F20D2022F81100B5
:102C40001A683E2A96BF1A68002201321A600220D2
:102C5000FFF7F2FD23786BB1084B094A196840F27F
:102C60000D3022F811001A683E2A96BF1A68002219
:102C700001321A6010BD00BF00000020C00100201A
:102C8000740C0020134B10B51A781C466AB1124B15
:102C9000124A196840F20E2022F811001A683E2AE2
:102CA00096BF1A68002201321A600320FFF7C4FDA4
:102CB00023786BB1084B094A196840F20E3022F8AC
:102CC00011001A683E2A96BF1A68002201321A6063
:102CD00010BD00BF00000020C0010020740C0020C7
:102CE000134B10B51A781C466AB1124B124A196878
:102CF00040F20F2022F811001A683E2A96BF1A6887
:102D0000002201321A600420FFF796FD23786BB190
:102D1000084B094A196840F20F3022F811001A686E
:102D20003E2A96BF1A68002201321A6010BD00BF09
:102D300000000020C0010020740C0020194B10B5C9
:102D40001A781C466AB1184B184A19684FF4077074
:102D500022F811001A683E2A96BF1A680022013232
:102D60001A600520FFF768FD0620FFF765FD0720C4
:102D7000FFF762FD0820FFF75FFD0920FFF75CFD0C
:102D800023786BB1084B094A19684FF4477022F851
:102D900011001A683E2A96BF1A68002201321A6092
:102DA00010BD00BF00000020C0010020740C0020F6
:102DB00008B50A20FFF740FD0B20FFF73DFD0C2072
:102DC000FFF73AFD0D20FFF737FD0E20FFF734FD2A
:102DD000BDE808400F20FFF72FBD00BF036810B506
:102DE0000446002B53D01A8892061CD59A89900667
:102DF00019D59988B4F80432C9B29BB25A1C92B260
:102E0000A4F8042223441971B4F804329BB2B3F538
:102E1000007F24BF0023A4F80432D4F80C3413B18B
:102E2000D4F81004984723681A8811062BD594F813
:102E3000152412BBB4F80804B4F80A1480B289B29D
:102E4000884212D0B4F80A1489B2481C214491F87F
:102E5000081280B2A4F80A049980B4F80A1489B25E
:102E6000B1F5007F28BFA4F80A24B4F80814B4F818
:102E70000A2489B292B2914205D19A8922F0800245
:102E80001204120C9A811A88120748BF9B8810BD41
:102E9000B0F8063282B09BB2ADF80430B0F804321C
:102EA0009BB2ADF80630BDF80620BDF8043092B2F2
:102EB000BDF806009BB29A42BDF8043080B29BB2C6
:102EC00038BF00F50070C01A80B202B07047B0F889
:102ED0000A3482B09BB2ADF80430B0F808349BB22B
:102EE000ADF80630BDF80620BDF8043092B2BDF84A
:102EF00004009BB29A42BDF8063080B29BB28CBFF0
:102F000000F2FF1000F1FF30C01A80B202B070472B
:102F10000023A0F80A34A0F808347047016803467B
:102F20008A8922F020021204120C8A81B0F806026B
:102F3000B3F8042280B292B2904214D0B3F80622C1
:102F400092B21A441079B3F8062292B2B2F5FF7F1A
:102F500001D9002204E0B3F8062292B2013292B203
:102F6000A3F8062201E04FF0FF308B899BB243F0BB
:102F700020038B8170472DE9F0410D46016816460C
:102F80008B89044623F020031B041B0C8B81FFF765
:102F90007FFFB04228BF304686B296B3B4F80672BF
:102FA000B046BFB2C7F50077BE420FD94DB1B4F8F5
:102FB0000612284689B2214404313A460BF094F9AE
:102FC0003D440023C7EB0608A4F8063245B1B4F827
:102FD0000612284689B22144043142460BF084F996
:102FE000B4F806329BB298441FFA88F8A4F8068217
:102FF000B4F806329BB2B3F5007F24BF0023A4F8D7
:103000000632236830469A8992B242F020029A81B1
:10301000BDE8F08103681A881006FCD599807047D6
:10302000026870B59389044623F020031B041B0C2F
:103030009381B0F80A54B0F80864ADB2B6B2B542A4
:103040000CD06319204693F80812FFF7E3FFB5F59B
:10305000FF7F9ABF0135ADB20025F0E72368A4F8E1
:103060000A549A8992B242F020029A8170BD90F877
:1030700015342DE9F04104460E4623B1FFF7CAFF8F
:103080000020BDE8F0814FF4803540F2FF179846EC
:103090002046FFF71CFF88B1B4F8082492B2531CF5
:1030A0009BB2A4F80834B4F8083422449BB2BB4263
:1030B00082F8086205D9A4F8088402E04FF0FF30D6
:1030C00000E00020226893899BB243F08003938143
:1030D00094F8143423B118B1013DD9D14FF0FF3029
:1030E000BDE8F0812DE9F84F90F8156404460D46CF
:1030F000904676B113464FF6FF71013B9BB28B426F
:1031000004D0226815F8010B9080F6E74046BDE830
:10311000F88FB24640F2FF1B2046FFF7D8FEC6EB01
:103120000807874228BF074627B9226813881F0669
:10313000FCD50127B4F808941FFA89F9C9F500797C
:103140004F450FD9B4F80804294680B200F5027043
:103150004A4620440BF0C8F84D44A4F808A4C9EB33
:10316000070900E0B946B4F808044A4680B200F501
:103170000270294620440BF0B7F8B4F808344D44E7
:103180009BB299441FFA89F9A4F80894B4F808345A
:103190003E449BB25B45236888BFA4F808A49A8983
:1031A00092B242F080029A8194F8143413B93046F6
:1031B000BDE8F88F4645AFD3F9E7C0F80C14C0F866
:1031C00010247047D0F80C340B60D0F81034136022
:1031D0007047034690F8140483F8141470470346AC
:1031E00090F8150483F8151470472DE9FF479DF8F2
:1031F000385004468A4600680021164699469DF8D4
:1032000030809DF834700AF038FE002D5CD0CDF887
:1032100000A036B1092E6FD14FF48053ADF80430C1
:1032200001E0ADF80460B9F1030F65D8DFE809F0FB
:103230000205070A4FF4805306E0002304E04FF430
:10324000405301E04FF40053B8F1010FADF80630E0
:1032500008D005D3B8F1020F4ED14FF4C06303E09C
:10326000002301E04FF48063ADF80830032F43D80A
:10327000DFE807F00204070A002307E04FF4807339
:1032800004E04FF4007301E04FF44073ADF80C30EC
:1032900020680C236946ADF80A300AF077FD2068F3
:1032A00040F2266100220AF0F4FD206840F2277106
:1032B00000220AF0EEFD206840F2255101220AF0BA
:1032C000E8FD2068012113E0206840F226612A46CB
:1032D0000AF0DFFD206840F227712A460AF0D9FD86
:1032E000206840F225512A460AF0D3FD206829467D
:1032F0000AF0C3FD012000E0002004B0BDE8F08723
:103300001FB50E4C002120464FF483620BF040F8AD
:103310000B4B00222360012300920192029320466E
:103320004FF4E121FFF761FF2268938923F08003C6
:103330001B041B0C938104B010BD00BF340D002092
:103340000044004010B5134C134A2368934212D036
:103350004C22104800210BF01BF80F4B0022236079
:103360001346E1580433482B82EA0102F9D1094B94
:1033700000209A6410BD00231A46E1580433482BFC
:1033800082EA0102F9D1034B9B6C9342E0D1012008
:1033900010BD00BF804F0020EDCADED0004870474E
:1033A000804F00200649002308711A46C85804338C
:1033B000482B82EA0002F9D1014B9A64704700BFA2
:1033C000804F002010B554884FF6FC70023CA4B228
:1033D00084421ED914880130013CA4B2844218D81A
:1033E0005078441EE4B2FD2C13D814788CB91870B0
:1033F00019835168581CB1F1FF3F08BF0021596182
:10340000117E997602F108011022FDF78FFF204608
:1034100010BD012010BD30B590F82630CBB1D1B130
:103420004568C4686A1E043C6243036A5A435D43AC
:103430000A60826AC06A9A42C0EB0505C2EB0505C4
:1034400004FB05F42CBF002301234C600B72002009
:1034500030BD024830BD024830BD00BFE8D4FFFF98
:10346000FBD4FFFF90F826301BB10022134602F078
:103470009DBA0148704700BFE8D4FFFF2DE9F34132
:1034800090F8263004460F461646002B5CD01506F1
:103490005CD401F0E1FC051E16DA2F4B9D4257D19A
:1034A000720755D5002220463946134602F07EFAAF
:1034B000054600284CD120463946324601F0CCFC66
:1034C0000546002844D109E006F04403442B05D109
:1034D0002046294601F096FD20483AE0B30737D54B
:1034E00001AA2046294601F075FC0246002830D189
:1034F000019BA0685988236AB1FBF3FC03FB1C18ED
:103500002168E36800FB0C1003FB08039B68013390
:103510001ED02046294603F019FA80462046B8F10D
:10352000000F04D0294601F06DFD404611E03946F8
:103530004246434602F03AFA58B9204639463246E6
:1035400001F08AFC054603E0054802E0054800E07A
:10355000284602B0BDE8F081F4D4FFFFE5D4FFFFB8
:10356000E8D4FFFF07D5FFFF10B590F826401CB147
:10357000BDE8104001F07ABD004810BDE8D4FFFF5F
:103580002DE9F7431E4690F82630074689469046B7
:103590005BB30025384649466A4601AB01F066FD3B
:1035A000002812DB019C14B3A64238BF34464046C3
:1035B000009922460AF098FE3846494622460123E1
:1035C000A044361B254401F0ADFE3EB90A4B98429B
:1035D00007D110EA250038BF28460AE00028D9DACA
:1035E000F4E7002808BF284603E0044801E0024849
:1035F000EBE703B0BDE8F083EFD4FFFFE8D4FFFFB3
:1036000073B590F8266004460D4666B1DBB201F052
:1036100089FE48B92046294601AA01F0DBFB18B90A
:10362000019B986800E0014802B070BDE8D4FFFF3C
:1036300070B590F8263004468BB110220023FFF7B6
:103640001DFF051E0DDB29460022204603F07EF9F2
:1036500029460646204601F0D5FC304670BD02489A
:1036600070BD284670BD00BFE8D4FFFF90F826303B
:1036700013B1002203F06AB900487047E8D4FFFF95
:103680002DE9F0431C4690F8263085B00546884663
:103690001746002B3FD003AA01F09CFB00283BD12A
:1036A000039BD5F800C09A7BD5F80890D2075888BC
:1036B000296AEE6807D52346284641463A4602F075
:1036C000CBFA234624E0B0FBF1F201FB120109FB27
:1036D00002C206FB012296689A68B6F1FF3F08BF56
:1036E0000026B61AA64228BF264646B100962846AE
:1036F00041463B4602F0EEFE70B9A41B3744334608
:103700003CB12346284641463A4602F0A5FA331911
:1037100010B9184600E0024805B0BDE8F08300BFCC
:10372000E8D4FFFF90F82600024B00280CBF184693
:1037300000207047E8D4FFFFF7B590F82630044624
:10374000154623B301AA01F045FB064608BB019BC1
:10375000226A5888E168B0FBF2F302FB130251437E
:10376000A76805F1080007FB031321680433194417
:103770004B7810222B704B680831B3F1FF3F08BF24
:1037800000236B600B7C2B76FDF7D0FD01E0024837
:1037900000E0304603B0F0BDE8D4FFFF70B590F80C
:1037A0002630044616468BB100221346FFF766FE0C
:1037B000051E0DDB324629462046FFF7BDFF294690
:1037C0000646204601F01EFC304670BD014870BD23
:1037D000284670BDE8D4FFFF07B590F8263033B116
:1037E00001AA01F0F7FA18B9019B986800E00248B5
:1037F00003B05DF804FB00BFE8D4FFFF90F826306B
:103800000BB101F0FFBB0148704700BFE8D4FFFFD8
:1038100090F826300BB103F06DBA0148704700BF35
:10382000E8D4FFFF90F8263023B100231060938086
:103830001046704718467047036893F82600034BFC
:1038400000280CBF18460020704700BFE8D4FFFFD7
:1038500037B5054600680C4690F826300BB90020B5
:103860000BE0A98800940022054B01F081F80028A4
:10387000F5D1238B20460133AB8003B030BD00BFB0
:10388000C533000890F826300BB903F059BB014846
:10389000704700BFE9D4FFFF10B55C68B4F1FF3F8B
:1038A00004D0006AB1FBF0F0A0420BD010884FF6B4
:1038B000FF74A04206D15288824203D11B680020C7
:1038C000198010BD012010BD10884FF6FD71013820
:1038D00080B2884210B50CD85088012809D154789C
:1038E00059788C4206D110781B78C01A18BF012075
:1038F00010BD012010BD2DE9FF47026A04460023D8
:1039000087682668ADF80E30B1FBF2F302FB1312A4
:1039100007FB0363C0680D4600FB023083884FF647
:10392000FF729342DFF8608112D1D8F800305B0556
:1039300040F18F804B4B1B68002B40F08A80662340
:103940000093494849494A4A4A4B05F027FC80E020
:1039500083B9D8F800305F057DD5424B1B68002B3A
:1039600079D16823009340484349414A414B05F0CF
:1039700015FC70E0D8F800305E0505D5394B1B68A2
:1039800013B93E4805F00AFC226AE068B5FBF2F381
:1039900002FB13525043A168A66901FB0300216892
:1039A0000430084402220DF10E01B047064680B1F2
:1039B000D8F80030580550D52A4B1B68002B4CD145
:1039C0006B23009328483146294A2A4B05F0E6FB31
:1039D00043E0E36ADFF88CA00133E3628146636B66
:1039E0009E4234D2236B3701DA19DB5D6BB3528808
:1039F000AA4211D1D8F80020510507D5DAF80020E5
:103A000022B91F4831462A4605F0C8FB236BDA1954
:103A1000A2F8029003F80790236BDA199289AA4260
:103A200013D1DB5D8BB1D8F80020520507D5DAF849
:103A3000002022B9134831462A4605F0AFFB236B1C
:103A40001F447B88C7F80890BB810136C7E7002078
:103A500004E0064802E0084800E0304604B0BDE853
:103A6000F08700BF844F00203505010804D5FFFF13
:103A7000F4E700084B05010803D5FFFF6D050108B9
:103A80007F050108AC050108804F00202DE9F347B0
:103A9000DFF88890DFF888A006460F46904600249D
:103AA000736B9C4233D2336B25015A195B5D63B350
:103AB0005288BA4211D1D9F80020510509D5DAF857
:103AC000002032B90093134821463A46434605F098
:103AD00065FB336B2B44A3F80280336B5A19928930
:103AE000BA4212D1D9F8002052050AD5DAF80020DE
:103AF0003AB95B5D0848009321463A46434605F0D3
:103B00004DFB336B1D44A5F80C800134C8E702B0AF
:103B1000BDE8F087D90501080C060108804F002098
:103B2000844F00202DE9F04F914289B004460E46A3
:103B300015460593BDF84CB012D1A24B1B685B052E
:103B400047D5A14B1B68002B43D14FF492730093D0
:103B50009E486FF42C519E4A9E4B05F01FFB38E0A7
:103B6000236AD4F80CC0B1FBF3F203FB121A0CFB6E
:103B70000AFA0768806800FB02AA0AF1040A07EB48
:103B80000A09B9F802804FF6FC72A8F1020189B265
:103B9000914240F24981B5FBF3F103FB11530CFB59
:103BA00003F300FB013104317B185B88023B9BB2BD
:103BB000934240F2398137F80A300332934200F0E1
:103BC0003581002B00F034817B5A934240F03281E2
:103BD00002E06FF42C5039E1B8EB030EDEF1000285
:103BE00052EB0E020492774A1268520511D5764ABA
:103BF000126872B9984506D0774B784AB8F1000F31
:103C000018BF134600E0764B764831462A4605F049
:103C1000C5FAB9F802305BB3226A08A9002321F87B
:103C2000023DB6FBF2F302FB1362E0684243A06878
:103C300000FB032320689A1D1044A36902229847C1
:103C40008446A8B15F4B1B685F050FD55E4B1B68B0
:103C500063B94FF49D73009361465C485C4A5D4BC9
:103C6000CDF80CC005F09AFADDF80CC06046EDE026
:103C7000BBF1AA0F4FF6FF730CD1049A12B1ADF845
:103C80001E3009E018F1000818BF4FF00108ADF828
:103C90001E8001E0ADF81EB0BDF81E209A4227D06C
:103CA000226AE068B5FBF2F302FB13525043A168AD
:103CB000022201FB0300216806300844A3690DF1CC
:103CC0001E019847804698B13E4B1B685E0540F147
:103CD000A7803D4B1B68002B40F0A28040F24913A7
:103CE00000933A4841463A4A3A4B05F057FA97E072
:103CF000A36A0598013BA3622168D4F808E0236A0F
:103D0000E268D4F818C0F8B9049818B117F80A0096
:103D1000002832D1B5FBF3F003FB105353430EFBE5
:103D2000003008300844043A09F10401E04707462E
:103D300018B3244B1B685D0574D5234B1B68002BFF
:103D400070D14FF4A87335E0B5FBF3F003FB1053CB
:103D50005A430EFB002008300844129A0599E047A8
:103D6000074650B1174B1B685C055BD5164B1B68AB
:103D7000002B57D14FF4AA731CE0226AE068B5FB10
:103D8000F2F302FB13525043A168A76901FB030041
:103D900021680430084402224946B847074618B350
:103DA000084B1B6858053DD5074B1B68002B39D1C4
:103DB00040F25913009305483946054A054B05F072
:103DC000EDF92FE0804F0020844F002035050108D9
:103DD00006E800084B050108490601083F060108EE
:103DE000440601084E060108204631462A46FFF7E0
:103DF0004DFE20463146FFF77EFD044628B3154BA5
:103E00001B68590521D5144B1B68F3B940F25F13A9
:103E1000009312482146124A124B05F0BFF914E0F4
:103E2000404613E0384611E00F4C04E00F4C02E02E
:103E30000F4C00E00F4C074B1B68580505D5064B8F
:103E40001B6813B94FF49773E2E7204609B0BDE849
:103E5000F08F00BF804F0020844F002035050108FF
:103E600006E800084B050108FED4FFFF02D5FFFF5E
:103E700001D5FFFF00D5FFFFF0B50E46816804466F
:103E800071430068A289431882F440425B8882F043
:103E90000102934285B016D1435A01339BB2ADF86B
:103EA0000C30415A9942218F02D9B1F5404F08D8C0
:103EB000B1F5804F02D2B3F5404F07D88B4238BFDF
:103EC0000B46238702E0238FADF80C301A4BADF878
:103ED0000E201A681F4612F4806F08D0174B1B681B
:103EE0002BB917483146BDF80C2005F057F9A168E9
:103EF0002068E26901FB060090470546C0B92268C8
:103F0000A068A36900FB062003A904229847054680
:103F100070B13B685A050BD5084B1B6843B94FF489
:103F20008F73009307482946074A084B05F036F976
:103F3000284605B0F0BD00BF804F0020844F002010
:103F40006E0601083505010816E800084B05010852
:103F5000F0B513880D4685B004461146002B38D0C5
:103F600052884FF6FF70824231D0012A40F2008120
:103F7000824E31684F0506D58149096819B98148D3
:103F8000294605F00BF9226A04A9002321F8023D15
:103F9000B5FBF2F302FB1355E768A0686F4300FB23
:103FA000037023680430A46918440222A047044621
:103FB000002800F0D0803368580540F1D780704B5E
:103FC0001B68002B40F0D28040F25163BBE093426B
:103FD000CED1581E80B24FF6FD7290427FD84A78FB
:103FE0000B78013AD2B25BB32369D108595C02F075
:103FF000070341FA03F3D90700F1AD805F4B19685D
:104000001E4611F4806F07D05D4B1B6823B95E48D4
:104010002946013205F0C2F820462946FFF76BFC1D
:104020000446002800F0978033685B0540F19E80CD
:10403000534B1B68002B40F0998040F25A6382E09A
:104040004B68F3B94D4B19681E4611F4806F07D0C9
:104050004B4B1B6823B94D482946013205F09EF8A9
:1040600020462946FFF747FC0446002873D03368F2
:104070005F057BD5424B1B68002B77D140F25F6315
:1040800061E0097E012966D05E1C03D0E168B3EBD4
:10409000012F05D86168481EA16841438B425AD957
:1040A000364B19681E4611F4806F07D0344B1B68DD
:1040B00023B937482946013205F070F820462946D1
:1040C000FFF719FC0446002845D0336858054DD544
:1040D0002B4B1B68002B49D14FF4CD6333E04FF6D7
:1040E000FF72934237D14A889A4234D1E268002362
:1040F00000E0013393422ED0C85CFF28F9D01F4B5B
:104100001A681E4612F4806F27D1226A04A9002380
:1041100021F8023DB5FBF2F302FB1355E768A068F6
:104120006F4300FB037023680430A4691844022223
:10413000A047044678B13368590517D5104B1B6862
:10414000A3B940F27263009312482146124A134BFE
:1041500005F024F80AE001200EE0094B1B68002B53
:10416000D3D10F48294605F019F8CEE7204603E0E1
:1041700083427FF42EAFFBE605B0F0BD804F0020F8
:10418000844F00208C060108CA060108F9060108C0
:104190002D0701083505010829E800084B0501082D
:1041A0005A07010800232DE9F74FD0F804C0044650
:1041B0008362C36203874FF6FF7218461946614552
:1041C00018D0A66827684E43A58907EB0608B8F8FB
:1041D000028085F4404585F00105A84501D00130F5
:1041E00006E0BD5BAB4238BF2B46AA4228BF2A4639
:1041F0000131E4E7B2F5804F04D2B3F5404F01D965
:10420000228700E02387012804D80025404FDFF8EB
:10421000048129E03E4B1B68590572D53D4B1B6854
:10422000002B6ED140F2DC7300933B483B493C4A83
:104230003C4B04F0B3FF64E0A2682368A18902FB51
:1042400005335A8881F4404383F001039A420FD129
:10425000236A002205FB03F64FF6FF7CB6B24FF649
:10426000FC799A4227D3013563689D42E4D346E046
:104270003B685A0506D5D8F800301BB92A482946AC
:1042800004F08CFF20462946FFF7F6FD064600287D
:10429000DED01F4B1B685B0535D51E4B1B68002B02
:1042A00031D140F2E47300931B4831461C4A1D4B48
:1042B00004F074FF27E0901980B2B0FBF3FA03FB1F
:1042C0001A0BE068A16800FB0BF001FB0A012068F3
:1042D000043100EB010A415A614503D1A16A013161
:1042E000A16209E029B1BAF80210023989B2494540
:1042F00002D8E16A0131E162013292B2B1E70020F5
:1043000002E0064800E0304603B0BDE8F08F00BF91
:10431000804F0020844F00203505010806D5FFFF9F
:104320004DE800084B050108900701082DE9F34707
:10433000164604460D4699460168D0F808C0026A40
:10434000C3687078DDF828A00138C0B2FD28594F45
:1043500011D8B5FBF2F002FB10525A430CFB0022BD
:10436000043288188A5A4FF6FF718A4205D1418873
:10437000914202D10CE0504C00E0504C3B68580593
:104380003ED54F4B1B68002B3AD140F26D1330E005
:10439000B9F1000F07D0043B9A4504D9494840F2CF
:1043A0006F11FCF71DFA3B685B052BD472884FF642
:1043B000FF739A4239D1B9F1000F53D1226AE068F4
:1043C000B5FBF2F302FB13556843A168022201FB1F
:1043D000030320680433A46918443146A047044607
:1043E00070B13B685D050BD5354B1B6843B94FF485
:1043F000C073009334482146344A324B04F0CEFE59
:10440000204653E02E4B1B68002BCFD132787378B7
:10441000DFF8C4E000922E4A2E482946B9F1000F79
:1044200008BF724604F0BAFEC0E7226AE068B5FB36
:10443000F2F302FB13525043A168022201FB030076
:10444000216806300844A369B11C984780460028BB
:10445000B1D03B685F0528D5194B1B682BBB4FF4C7
:10446000BB731BE0226AE068B5FBF2F302FB135258
:104470005043A168524601FB0300216808300844FC
:10448000A369494698478046002897D03B685E0557
:104490000BD50B4B1B6843B940F27B1300930A48C2
:1044A00041460A4A074B04F079FE404602B0BDE897
:1044B000F08700BF804F0020F8D4FFFFF9D4FFFF42
:1044C000844F00204B0501083505010859E8000814
:1044D000BB070108C0070108B907010851884FF65A
:1044E000FC73023989B299421BD911880133013911
:1044F00089B2994215D813789BB95368013B0333AD
:104500000FD8137E012B0CD0517802690139C9B242
:10451000CB08012001F0070100FA01F1D05C014352
:10452000D15401207047F7B5074650881C46023821
:1045300080B24FF6FC7398420E4631D91088013391
:10454000013880B298422BD813784BB360789842E8
:1045500026D250782278824222D1134C20682546F8
:1045600010F4806F05D01148006810B9104804F0AD
:1045700015FE38463146FFF7BEF9044680B12B6878
:104580005A050BD5094B1B6843B940F2EB63009306
:1045900008482146084A094B04F000FE204600E086
:1045A000012003B0F0BD00BF804F0020844F0020E9
:1045B000E6070108350501086AE800084B0501080F
:1045C000F7B5164652881C46023A92B24FF6FC7373
:1045D0009A420F4630D932880133013A92B29A4258
:1045E0002AD87278A3799A4226D13278E3799A420E
:1045F00022D1A378ABB1A188FFF77DF9054678B148
:104600000F4B1B68590515D50E4B1B6893B9DA2360
:1046100000930D4829460D4A0D4B04F0BFFD09E0FB
:10462000A07073881BB90120A070A78005E02780C7
:10463000002002E0284600E0012003B0F0BD00BFEA
:10464000804F0020844F0020350501088DE80008C8
:104650004B050108F7B514881546013CA4B24FF686
:10466000FD7294420F462CD86C781A78944228D167
:104670002A785B789A4224D3FFF73DF9044600B3C9
:10468000114B1A681E4612F4806F09D00F4B1B683D
:1046900033B900906A782B780D48394604F07EFDD6
:1046A000336858050BD5094B1B6843B940F2C34327
:1046B000009308482146084A084B04F06FFD204645
:1046C00000E0012003B0F0BD804F0020844F0020A7
:1046D00023080108350501089FE800084B0501087B
:1046E0002DE9F341044650884FF6FC73023880B23E
:1046F0009842884642D910880133013880B29842E6
:104700003CD81378002B39D15368013B033335D89B
:1047100052782569571EFFB2FB08EE5C07F00707C9
:1047200046FA07F0C00721D5164B18681D4610F44D
:10473000806F05D0144B1B6813B9144804F02EFD8C
:1047400020464146FFF7D7F80446B8B12B685D050F
:1047500012D50D4B1B687BB940F2457300930C4892
:1047600021460C4A0C4B04F019FD05E0012000FA2B
:1047700007F73E43EE5402E0204600E0012002B07D
:10478000BDE8F081804F0020844F002065080108BB
:1047900035050108B5E800084B050108F8B50D46D8
:1047A00011881C46013989B24FF6FD73994237D8FA
:1047B0005388002B34D11378002B31D10369216841
:1047C000184E23F8115033685F0516D5164B1B6839
:1047D0009BB9C168576892F801E0A1F11E029742A7
:1047E00006D307F11E035B1A0439B3FBF1F301335F
:1047F0000E482946724604F0D1FC236862680133F2
:10480000934223600CD3336825815C0506D5064BA3
:104810001B681BB90648294604F0C0FC0220F8BDFD
:104820000120F8BD804F0020844F00209F08010820
:10483000DC08010837B514884FF6FD71013CA4B2BD
:104840008C4201D9012028E054780125013CE4B2D2
:10485000E10804F0070405FA04F40069455C2C4300
:10486000445418680028EDD01378002BEAD102F1E7
:104870000801FCF72CFD0028E4D1094B1B685B05FF
:104880000AD5084B1B683BB98923009306480749A2
:10489000074A084B04F082FC044803B030BD00BF57
:1048A000804F0020844F002035050108F7D4FFFF1A
:1048B000D8E800084B0501082DE9F3411546528858
:1048C0001E46023A92B24FF6FC739A420746884659
:1048D0003FD92A880133013A92B29A4239D86B788B
:1048E000013BDBB2FD2B34D82B78002B31D1306863
:1048F00005F10801FCF7EBFC044650BB6B6843B3C1
:10490000B37ABBB138463189FEF7F5FF074680B16F
:10491000124B1B685A051AD5114B1B68BBB940F2E4
:10492000832300930F4839460F4A104B04F036FC9E
:104930000DE0B4722B7EF3726A886B781AB9B37289
:10494000A6F8088005E0B371A6F8048002E03C46B2
:1049500000E00124204602B0BDE8F081804F002035
:10496000844F002035050108EDE800084B050108DB
:10497000F8B516461F46026A4368054653439942F6
:104980000C4603D30EB90220F8BD0024296AE8685A
:10499000B4FBF1F201FB12414843AB68214603FB33
:1049A00002022B6804321A442846069BB8470128A5
:1049B0000AD16B682A6A01345343A4B29C4228BFCF
:1049C0000024B442E2D1DEE7F8BD30B5054685B03B
:1049D0000C4679B9114B1B68590519D5104B1B684A
:1049E000B3B9BC2300930F480F49104A104B04F091
:1049F000D5FB0DE00291818C02AB039200930A4635
:104A00000C4BFFF7B5FF022804D02388AB8402E0EB
:104A1000054800E0084805B030BD00BF804F0020C9
:104A2000844F002035050108FBD4FFFFFAE8000899
:104A30004B05010899380008FDD4FFFF2DE9FF411F
:104A40009046026A0D46B1FBF2F302FB135704468F
:104A5000C068A168474301FB0377216804370F440E
:104A60007B687978B3F1FF3F14BF1E460026A0F1A2
:104A70001E0296428DF80C1009D3C0F11E0E76442A
:104A8000A0F1040EB6FBFEF60136F6B200E00026F9
:104A9000B3F1FF3F07D0934208D2013BD81C94BF2B
:104AA000002301230EE0002AF7D11346C0F11E02B5
:104AB00013440438B3FBF0F200FB1233D3F10103CB
:104AC00038BF002303B1013E3B7E8DF80D60012B02
:104AD0003C4E27D033685A0507D53B4B1B6823B99A
:104AE0003A489DF80D2004F059FB03AB00210093D8
:104AF0002046374B0A46FFF73BFF30F002030746DC
:104B000010D033685B0556D52F4B1B68002B52D154
:104B100040F2017300932F4839462F4A2F4B04F07F
:104B20003DFB48E033685F0506D5274B1B681BB982
:104B30002B48294604F032FB20460DF10E014FF0C0
:104B4000FF32FFF742FF274B984210D133685C05D4
:104B500006D51D4B1B681BB92348294604F01EFBD4
:104B6000B8F1000F01D0A8F80050002026E0B8F1FD
:104B7000000F03D0BDF80E30A8F80030002301214B
:104B800001912046BDF80E2000932946FEF7CAFF8A
:104B900004460028E9D0336858050ED50A4B1B6837
:104BA0005BB940F22F7300930A4821460A4A0B4B27
:104BB00004F0F4FA01E0384600E0204604B0BDE815
:104BC000F08100BF804F0020844F00200C090108B5
:104BD00027450008350501080FE900084B050108C5
:104BE00040090108FDD4FFFF620901087FB51646A0
:104BF0001D460C4681B9204B1B685A0537D51F4B03
:104C00001B68002B33D1EB2300931D481D491E4A1E
:104C10001E4B04F0C3FA2AE00023BDF820100393D2
:104C2000029302AB8DF80E2000930A46184B8DF8C4
:104C30000F50FFF79DFE022815D19DF80A30C3B131
:104C40000D4B1B685B0509D50C4B1B6833B911482C
:104C5000BDF80C1032462B4604F0A0FABDF80C301B
:104C60000020238006E0BDF80830238002E00548DC
:104C700000E0094804B070BD804F0020844F002040
:104C800035050108FBD4FFFF2FE900084B0501089B
:104C9000C14500089A090108F0D4FFFFF0B5148857
:104CA0004FF6FD73013CA4B29C4285B007460D4609
:104CB00078D85388002B75D11378002B72D00092CE
:104CC0003A4B0A46FFF754FE394C06462368C8B9EA
:104CD0005B0506D5374B1B681BB93748294604F0DE
:104CE0005DFA29463846FEF706FE0546002859D0EB
:104CF00023685F0552D52F4B1B68002B4ED140F225
:104D0000A16334E002283AD15E0506D5294B1B6821
:104D10001BB92A48294604F041FA38460DF10E0124
:104D20004FF0FF32FFF751FE254B98420BD123681D
:104D30005C0537D51F4B1B68002B33D12148294612
:104D400004F02CFA2EE0002301210191BDF80E2081
:104D5000294600933846FEF7E5FE054610B3236862
:104D600058051BD5134B1B68C3B940F2AF630093C2
:104D700015482946154A164B04F010FA0EE059055D
:104D80000ED50C4B1B685BB940F2B26300930E4822
:104D900031460E4A0E4B04F001FA01E0284602E0CB
:104DA000304600E0012005B0F0BD00BFC938000862
:104DB000804F0020844F0020E1090108160A0108F5
:104DC000FDD4FFFF460A0108350501083FE9000848
:104DD0004B05010807B5002902DB436B99420FDB45
:104DE000164B1B68590523D5154B1B6803BB742351
:104DF000009314481449154A154B04F0CFF917E0F5
:104E0000036B090158185B5C7BB90C4B1B685A0596
:104E100010D50B4B1B686BB97523009309480D49DE
:104E20000A4A0B4B04F0BAF904E01060002002E0DB
:104E3000054800E0074803B05DF804FB804F002000
:104E4000844F002035050108F2D4FFFF66E9000811
:104E50004B050108F3D4FFFF2DE9F047064686B065
:104E600091460F4611B1416B00251CE05A4B1B685F
:104E7000590540F1A880594B1B68002B40F0A380D6
:104E800040F29A23009356485649574A574B04F02C
:104E900085F998E0326B2B0112F80380D418B8F131
:104EA000000F03D001358D42F4D112E00DF10C0A50
:104EB00041460C22504609F06BFACDF800A030466E
:104EC000414642464A4B0397FFF752FD022859D10B
:104ED00011E0414B1B685A0577D5404B1B68002BEE
:104EE00073D140F29D2300933D4842493E4A3F4BD7
:104EF00004F054F969E09DF81630DFF8DC807BB3EC
:104F0000D8F800305B0507D5344B1B6823B93A4805
:104F1000BDF8141004F042F93046BDF814100DF13C
:104F20000A02FFF78BFD064688B1D8F800305D0510
:104F30000BD52A4B1B6843B940F2A923009328489C
:104F40003146294A294B04F029F9304640E09DF8C2
:104F500016308DF81230BDF80A30ADF8103012E07E
:104F6000D8F800305C0532D51C4B1B68002B2ED1C5
:104F700040F2AD2300931A4820491B4A1B4B04F012
:104F80000DF924E020BB144B1B68580508D5134BC2
:104F90001B682BB91A483946BDF8102004F0FEF8FA
:104FA00020460021102209F0F3F99DF8123084F810
:104FB0000E902370BDF8103028466380A3819DF8C1
:104FC0001730237104E0074802E00A4800E00B486C
:104FD00006B0BDE8F08700BF804F0020844F00205E
:104FE00035050108FBD4FFFF79E900084B050108EE
:104FF000B9480008F5D4FFFF810A0108F4D4FFFF87
:10500000A80A010807B5002902DB436B994210DBAF
:10501000104B1B68580517D50F4B1B68A3B940F2FE
:10502000C32300930D480E490E4A0F4B04F0B6F807
:105030000AE0036B090158185B5C3BB100211022A8
:1050400009F0A6F9002002E0054800E0184603B088
:105050005DF804FB804F0020844F002035050108D7
:10506000F2D4FFFF84E900084B0501082DE9F04F59
:1050700089B0904607AA05469946FFF7ABFE8246DF
:1050800088B19D4B1B68580552D59C4B1B68002B63
:105090004ED14FF43473009399485146994A9A4B34
:1050A00004F07CF844E0079FBB7B190711D4924BB6
:1050B0001B685A053ED5914B1B68002B3AD140F234
:1050C000D32300938E4891498E4A8F4B04F066F8A3
:1050D00030E07888296AEC68B0FBF1F301FB13003B
:1050E0006043D5F808B0D5F800C00BFB03000430CE
:1050F0000CEB00025368BE68B3F1FF3F08BF00230A
:105100009E4205D3C8F800A0814CC9F800A0AEE0CB
:105110003CF80000002800F0A5804FF6FF7A5045CB
:1051200000F0A28052783878904240F09F8003E0EF
:105130005046DEE07548DCE0B8899B1BB0FBF1FA15
:1051400001FB1A0161430BFB0A1A0AF1040A0CEB7A
:105150000A011CF80AA00493A4F11E03BAF1000F7F
:105160000CBF4FF01A0C4FF0000C9E42CDF808A077
:10517000CDF80CC00AD306F11E0AC4EB0A0AA4F14A
:10518000040CBAFBFCFB0CFB1BAA00E0B2463F7907
:10519000012F11D1584B1B685B0561D5574B1B681C
:1051A000002B5DD140F2E723009355485949554AF9
:1051B000554B03F0F3FF53E09E4208D306F11E0C5B
:1051C000C4EB0C0C271FBCFBF7F7013700E00027EE
:1051D000DDF808C0BC4536D09E4208D306F11E0358
:1051E0001B1B211FB3FBF1F30133DBB200E00023F3
:1051F00000900DF11A012846FFF7F8FC064688B129
:105200003D4B1B685F050BD53C4B1B6843B940F217
:10521000FB2300933A4831463A4A3B4B03F0BEFF2A
:10522000304666E0BDF81A30079A286A9381B3FBCE
:10523000F0F200FB1233E968AE68594306FB021135
:105240002E68043131440B88DBB14FF6FF72934274
:1052500029D0079B48781A78904228D02E4C11E02C
:105260002C4846E02D4C02E02D4C00E02A4C224B0D
:105270001B685E0519D5214B1B68B3B940F2DF23CB
:1052800009E0264C1C4B1B685D050ED51B4B1B68AB
:105290005BB940F20333009319482146194A1A4B6F
:1052A00003F07CFF01E01E4CECE7204621E0EA68B9
:1052B0009B68A2F11E00834206D31E339B1A043A58
:1052C000B3FBF2F002FB10330A78201F039C002A84
:1052D00014BF04221A22001BDDF810B0CAEB000034
:1052E0001344584528BF58461944C8F80010C9F857
:1052F000000009B0BDE8F08F804F0020844F0020EF
:105300003505010890E900084B050108E6D4FFFFC8
:10531000EFD4FFFF07D5FFFFF1D4FFFFEBD4FFFF72
:10532000EAD4FFFF2DE9F04385B0144603AA0746EF
:105330009946FFF74FFD804698B14B4B1B685D05C2
:1053400040F18E80494B1B68002B40F0898040F271
:105350001133009346484146464A474B03F01EFF2F
:105360007EE0039E3B6A7088BA68B0FBF3F103FBF2
:1053700011003B68FD6802FB013205FB00239A68BF
:10538000B2F1FF3F08BF0022B9F1010F04D0B9F11B
:10539000020F03D1144401E0B3681C44002C03DB6A
:1053A000944228BF144600E000243379012B55D0E5
:1053B000A5F11E039C4207D3C5F11E002044291FFE
:1053C000B0FBF1F0013000E00020B168994207D352
:1053D0001E31491BA5F1040CB1FBFCF1013100E0C9
:1053E000002188423AD094420CD19C4201D24CB95F
:1053F00034E0C5F11E0121442A1FB1FBF2F002FB8B
:1054000010125AB39C42327808D3C5F11E032344CC
:10541000043DB3FBF5F30133DBB200E00023B189B7
:10542000384600910DF10A01FFF7E0FB054688B10F
:105430000D4B1B685C050BD50C4B1B6843B940F248
:105440002E3300930A4829460A4A0B4B03F0A6FE66
:10545000A84605E0BDF80A20039B9A81039B9C6047
:10546000404605B0BDE8F083804F0020844F002007
:10547000350501089FE900084B0501082DE9F04FAB
:10548000044693B000254FF000400E910F92099012
:105490000A9563689D4280F0D080A26821680592D9
:1054A0006A43D4F80CC0974B8E188CEA03037688B5
:1054B0009BB29E4240F0BF808A5A0892226A05FB46
:1054C00002F39BB20C9300231E4698461F4693425C
:1054D00031D2DDF830A005989A441FFA8AFABAFB57
:1054E000F2F902FB19AA0CFB0AFA00FB09AA0AF15D
:1054F000040A01EB0A0931F80AA04FF6FF70824551
:1055000005D1B9F802A0824504D1013710E0BAF103
:10551000000F09D0B9F802904FF6FC70A9F102090A
:105520001FFA89F9814502D808F1010800E0013627
:1055300001339BB2CBE77448B4F83890089A0368FB
:10554000C2EB09095B051FFA89F90AD56F4B1B6885
:105550003BB98DE8800102966D4829464B4603F021
:105560001DFE236A9F4209D1674A13685E0562D512
:10557000664B1B68002B5ED1664826E0A26A964205
:1055800009D961480368580555D5604B1B68002B45
:1055900051D1614819E05AB1974209D15A4A13686A
:1055A000590548D5594B1B68002B44D15B480CE08A
:1055B0009E420DD10F9858B9534A13685A053AD5EF
:1055C000524B1B68002B36D1554803F0E7FD32E003
:1055D000642202FB07F102FB09F902FB06F002FB61
:1055E00008F2B1FBF3F1B0FBF3F0A9EB8101B2FBE0
:1055F000F3F36FF0004909FB0039434801EB490917
:1056000003685B0506D5414B1B681BB945484946F5
:1056100003F0C4FD099A91450DDDA36A9E420AD8A4
:10562000089B012007960B97CDF818800D93AB4689
:10563000CDF824900A9001352BE7334D0A9A2B6858
:105640007AB15E0528D5314B1B682BBB069B0798AA
:1056500000930190594634480D9A0B9B03F09EFD30
:105660001AE0580505D5294B1B6813B92F4803F0DC
:1056700095FD2B685F0540F1C080244B1B68002B13
:1056800040F0BB8040F2FF530093294829492A4A41
:105690002A4B03F083FDB0E04FF000094FF6FC7891
:1056A0004FF6FD77236A994565D20BFB039A1FFAE3
:1056B0008AFABAFBF3F203FB12A3E068A168434342
:1056C00001FB023322680433D1184988023989B2B8
:1056D00041454BD9D35A013B9BB2BB4246D82046E9
:1056E0000DF146015A46FFF770F9064640B32B68A4
:1056F00059057ED5054B1B68002B7AD140F211630A
:1057000048E000BF01C0FFFF804F0020844F002011
:10571000C70A01080C0B0108230B0108390B01080B
:10572000570B01086A0B0108740B0108BC0B010838
:1057300035050108ECD4FFFFAAE900084B05010874
:10574000AA2300900193BDF84620334620465146D7
:10575000FEF7E8F9064648B12B685A0549D5304BA3
:105760001B68002B45D140F2136313E009F10109D6
:105770001FFA89F996E720465946FEF77DFB064653
:1057800080B12B685B0534D5254B1B68002B30D1CD
:1057900040F21963009323483146234A234B03F018
:1057A000FDFC26E0226AA38CB3FBF2F35B4507D134
:1057B00061680BF101038B4228BF00235343A3848C
:1057C000E36A069A07989B1A1B1AE362A36A0244CB
:1057D0001344A362069A0E9B1A602E6816F4806624
:1057E00007D00F4B1E6836B911481146079B03F0CE
:1057F000D5FC304611E000200FE02B685E050BD58C
:10580000074B1B6843B940F20663009305480949FA
:10581000054A064B03F0C2FC064813B0BDE8F08F02
:10582000844F002035050108C9E900084B0501082F
:10583000DF0B0108ECD4FFFF2DE9FF47DFF8609193
:10584000DFF848A104460E460125A26A236A9A425F
:105850003AD2D9F80010DFF8488111F4806F06D0F1
:10586000DAF8001019B94848294603F097FCA36AF2
:10587000226AD21AE36A934210D2D8F800305D054A
:1058800020D5424B1B68EBB94FF4AF6300934048FF
:105890004049414A414B03F081FC13E0204603A9F3
:1058A0000022FFF7EBFD074650B1D8F800305C0549
:1058B00052D5364B1B68002B4ED140F27C5344E04E
:1058C0000135C2E733485BE0E16A1144C91A8E42F0
:1058D00011D9334B1B68580551D52C4B1B68002B35
:1058E0004DD140F28253009329482E492A4A2B4B2E
:1058F00003F054FC43E0964204D9DFF8A480DFF8BB
:105900008C9005E0921B9A42F7D3002038E00135D5
:10591000A36A9E422ED9D8F8002051051ED46B1ED2
:1059200013F0030F204603A914BF00220122FFF742
:10593000A5FD07460028EAD0194B1B685A050BD570
:10594000124B1B6843B940F29253009310483946FA
:10595000114A124B03F022FC384611E0D9F800201E
:10596000002ADCD1226A104800922946324603F010
:1059700015FCD4E7226A991B9142CCD3C5E70948AC
:1059800004B0BDE8F08700BF0A0C0108844F002076
:1059900035050108E4D4FFFFD2E900084B050108F2
:1059A000804F0020F6D4FFFF4B0C01082DE9F04F8B
:1059B00005468DB091468A4699B99B4B1B685B059D
:1059C00040F12881994B1B68002B40F0238140F265
:1059D0002A23009396489749974A984B03F0DEFB99
:1059E00018E10121FFF728FF064660B18E4B1B68C6
:1059F0005F0540F113818D4B1B68002B40F00E8139
:105A000040F22D23FAE031466A690DF13008286929
:105A100008F0BEFC48F824AD3146CDF80080284699
:105A20003246874BFEF7A4FF30F00201074615D03F
:105A30007D4B1B6813F4806341D07C4BD3F800B0DE
:105A4000BBF1000F3ED196230093794839467D4A39
:105A50007A4B03F0A3FB3C465E4637E06B682A6A4C
:105A60000E465A43023A964219D22B69F108595C04
:105A7000FF2912D00023701C41FA03F414F0010432
:105A8000DFB207D100EB030C944503D201373E444B
:105A9000F6B230E00133082BEED10836E3E7624B73
:105AA0001B685E0510D5614B1B686BB9A62300937C
:105AB0005F486549634A614B03F070FB04E00446AC
:105AC0001E4603E0044601E05F4C00E09FB1564BE8
:105AD0001B685D0540F1A380544B1B68002B40F010
